S017000061746D6567613332206472697665722E737265638D
S11300000C942A000C94EE030C9417040C944004F2
S11300100C9447000C9447000C9479050C94270524
S11300200C9450050C94FE040C94A7040C94D50471
S11300300C9447000C94A2050C9447000C94CB0537
S11300400C9447000C9447000C9447000C94470010
S11300500C94470011241FBECFE5D8E0DEBFCDBF0E
S113006010E0A0E6B0E0E8E8FEE002C005900D92E2
S1130070AA38B107D9F720E0AAE8B0E001C01D9280
S1130080A43BB207E1F70E9460020C9442070C946F
S11300900000CF93C82F60E080E10E9467026C2FBC
S11300A0661F6627661F87E10E946702C6FB6627F4
S11300B060F986E10E946702C5FB662760F985E165
S11300C00E946702C4FB662760F984E10E9467020C
S11300D061E081E10E9467028FEC97E00197F1F7FC
S11300E000C0000060E081E10E9467028FEC97E0AD
S11300F00197F1F700C00000C3FB662760F987E1B0
S11301000E946702C2FB662760F986E10E946702CB
S1130110C1FB662760F985E10E9467026C2F61705C
S113012084E10E94670261E081E10E9467028FEC32
S113013097E00197F1F700C0000060E081E10E94C0
S113014067028FEC97E00197F1F700C00000CF91B0
S11301500895CF93C82F61E080E10E9467026C2F5D
S1130160661F6627661F87E10E946702C6FB662733
S113017060F986E10E946702C5FB662760F985E1A4
S11301800E946702C4FB662760F984E10E9467024B
S113019061E081E10E9467028FEC97E00197F1F73B
S11301A000C0000060E081E10E9467028FEC97E0EC
S11301B00197F1F700C00000C3FB662760F987E1EF
S11301C00E946702C2FB662760F986E10E9467020B
S11301D0C1FB662760F985E10E9467026C2F61709C
S11301E084E10E94670261E081E10E9467028FEC72
S11301F097E00197F1F700C0000060E081E10E9400
S113020067028FEC97E00197F1F700C00000CF91EF
S113021008952FE788E391E0215080409040E1F772
S113022000C0000082E00E94490088E20E94490068
S11302308FEC97E00197F1F700C000008CE00E947A
S113024049008FEC97E00197F1F700C0000081E0CE
S11302500E9449008FE99FE00197F1F700C0000078
S113026086E00C944900CF93DF93EC0189918823B5
S113027019F00E94A900FACFDF91CF9108952F922F
S11302803F924F925F926F927F928F929F92AF9222
S1130290BF92CF92DF92EF92FF920F931F93CF936F
S11302A0DF93CDB7DEB7A6970FB6F894DEBF0FBEC7
S11302B0CDBF39014A0169A37AA31C019E012F5FB6
S11302C03F4F290180E2D9011D928A95E9F79301F4
S11302D069A17AA1C101A0E00E94360719F480E364
S11302E0898376C0930169A17AA1C101A0E00E942B
S11302F036077CF48DE28983822D0E94EF06390152
S11303004A0169A37AA31C011EA21DA281E090E008
S113031006C0E1E0F0E0FEA3EDA380E090E09201EE
S1130320280F391F3CA32BA33AE0A32EB12CC12CD8
S1130330D12CE12CF12C00E010E09301A40169A17F
S11303407AA1C1010E945F06205DABA1BCA12D93DF
S1130350BCA3ABA39301A40169A17AA1C1010E942A
S1130360610639014A0169A37AA31C018201EBA049
S1130370FCA0E418F508A0E00E943607A9F6F201F3
S1130380EE0DFF1DC701959587952DA13EA1840D06
S1130390951D232B79F00817190739F02291D801FC
S11303A03C9130832D938D01F6CFF201EE0DFF1DAC
S11303B010820EC008171907C1F32291D8011196B3
S11303C03C911197308311962C930F5F1F4FF2CFFE
S11303D0C2010E943301A6960FB6F894DEBF0FBE89
S11303E0CDBFDF91CF911F910F91FF90EF90DF90E0
S11303F0CF90BF90AF909F908F907F906F905F90C1
S11304004F903F902F900895811102C080E803C05F
S1130410813021F480EC860F0C94490008958CE916
S113042082BF80918C0090918D00019690938D00F5
S113043080938C0080918C0090918D000A9768F0D5
S113044010928D0010928C0080918A0090918B0004
S1130450019690938B0080938A0080918A009091FA
S11304608B00883E934030F010928B0010928A00EB
S11304700C940D06089540E062E080E00E94690457
S11304808CE982BF0E94A3048FE092E00E94D00412
S113049040E061E08AE396E00E94F40540E062E017
S11304A089E596E00E94F40540E063E08CE596E07F
S11304B00C94F4050E94E8020E94090178940895BE
S11304C00E945A020E943B020E942106FDCF982FEF
S11304D097708695869586956130C1F5813091F047
S11304E028F08230D9F0833029F108954BB321E00C
S11304F030E0B90102C0660F771F9A95E2F7CB018D
S1130500842B3AC048B321E030E0B90102C0660F41
S1130510771F9A95E2F7CB01842B3CC045B321E0C9
S113052030E0B90102C0660F771F9A95E2F7CB015C
S1130530842B3EC042B321E030E0B90102C0660F13
S1130540771F9A95E2F7CB01842B40C061113FC01D
S11305508130A1F028F08230F9F0833059F1089508
S11305604BB321E030E0B90102C0660F771F9A95C2
S1130570E2F7CB01809584238BBB089548B321E037
S113058030E0B90102C0660F771F9A95E2F7CB01FC
S11305908095842388BB089545B321E030E0B901F8
S11305A002C0660F771F9A95E2F7CB0180958423EA
S11305B085BB089542B321E030E0B90102C0660F63
S11305C0771F9A95E2F7CB018095842382BB089527
S11305D0E1E6F0E040E081E090E05191242F2770C3
S11305E0342F3695369536955130B9F120F0523086
S11305F009F475C0B9C03230D1F0333019F131305B
S113060059F05AB3BC0102C0660F771F2A95E2F76E
S11306109B01252B2ABBA8C057B3BC0102C0660F9F
S1130620771F2A95E2F79B01252B27BB9DC054B366
S1130630BC0102C0660F771F2A95E2F79B01252BA8
S113064024BB92C051B3BC0102C0660F771F2A9528
S1130650E2F79B01252B21BB87C0323011F13330E7
S113066079F1313079F05AB3BC0102C0660F771FBB
S11306702A95E2F79B012095352F32233ABB3BB3F1
S1130680232341C057B3BC0102C0660F771F2A95CC
S1130690E2F79B012095352F322337BB38B3232350
S11306A042C054B3BC0102C0660F771F2A95E2F71B
S11306B09B012095352F322334BB35B3232343C00C
S11306C051B3BC0102C0660F771F2A95E2F79B0164
S11306D02095352F322331BB32B3232344C032302B
S11306E021F1333091F1313081F05AB3BC0102C0B1
S11306F0660F771F2A95E2F79B01362F3095352335
S11307003ABB3BB3232B2BBB2FC057B3BC0102C056
S1130710660F771F2A95E2F79B01362F3095352314
S113072037BB38B3232B28BB1FC054B3BC0102C052
S1130730660F771F2A95E2F79B01362F30953523F4
S113074034BB35B3232B25BB0FC051B3BC0102C04E
S1130750660F771F2A95E2F79B01362F30953523D4
S113076031BB32B3232B22BB4F5F403209F035CF6C
S11307700895282F2770869586958695813081F077
S113078028F08230B9F08330F9F008953BB381E06A
S113079090E001C0880F2A95EAF783278BBB089560
S11307A038B381E090E001C0880F2A95EAF78327E7
S11307B088BB089535B381E090E001C0880F2A9585
S11307C0EAF7832785BB089532B381E090E001C046
S11307D0880F2A95EAF7832782BB08951F920F9208
S11307E00FB60F9211242F933F934F935F936F9300
S11307F07F938F939F93AF93BF93EF93FF93E09176
S11308009200F0919300309709F00995FF91EF91D0
S1130810BF91AF919F918F917F916F915F914F9114
S11308203F912F910F900FBE0F901F9018951F921C
S11308300F920FB60F9211242F933F934F935F9310
S11308406F937F938F939F93AF93BF93EF93FF9394
S1130850E0919000F0919100309709F00995FF9193
S1130860EF91BF91AF919F918F917F916F915F9124
S11308704F913F912F910F900FBE0F901F9018959D
S11308801F920F920FB60F9211242F933F934F9301
S11308905F936F937F938F939F93AF93BF93EF93E4
S11308A0FF93E0918E00F0918F00309709F0099545
S11308B0FF91EF91BF91AF919F918F917F916F9134
S11308C05F914F913F912F910F900FBE0F901F900A
S11308D01895813059F038F0823071F0833091F4FA
S11308E083B780640BC083B78F7B02C083B78064F7
S11308F083BF83B7877F05C083B78F7B83BF83B7ED
S1130900886083BF83B7887F83BF83B7682B63BF47
S1130910413049F028F0423061F0433069F00895E5
S113092083B78F7E02C083B7806183BF83B78F7D17
S113093008C083B78F7E02C083B7806183BF83B74B
S1130940806283BF089589B7816089BF08951F922B
S11309500F920FB60F9211242F933F934F935F93EF
S11309606F937F938F939F93AF93BF93EF93FF9373
S1130970E0919C00F0919D00309709F00995FF915A
S1130980EF91BF91AF919F918F917F916F915F9103
S11309904F913F912F910F900FBE0F901F9018957C
S11309A090939F0080939E0008951F920F920FB61C
S11309B00F9211242F933F934F935F936F937F93E1
S11309C08F939F93AF93BF93EF93FF93E0919E0018
S11309D0F0919F00309709F00995FF91EF91BF9135
S11309E0AF919F918F917F916F915F914F913F91C3
S11309F02F910F900FBE0F901F9018951F920F927A
S1130A000FB60F9211242F933F934F935F936F93DD
S1130A107F938F939F93AF93BF93EF93FF93E09153
S1130A209A00F0919B00309709F00995FF91EF919E
S1130A30BF91AF919F918F917F916F915F914F91F2
S1130A403F912F910F900FBE0F901F9018951F92FA
S1130A500F920FB60F9211242F933F934F935F93EE
S1130A606F937F938F939F93AF93BF93EF93FF9372
S1130A70E0919800F0919900309709F00995FF9161
S1130A80EF91BF91AF919F918F917F916F915F9102
S1130A904F913F912F910F900FBE0F901F9018957B
S1130AA01F920F920FB60F9211242F933F934F93DF
S1130AB05F936F937F938F939F93AF93BF93EF93C2
S1130AC0FF93E0919600F0919700309709F0099513
S1130AD0FF91EF91BF91AF919F918F917F916F9112
S1130AE05F914F913F912F910F900FBE0F901F90E8
S1130AF018951F920F920FB60F9211242F933F93C4
S1130B004F935F936F937F938F939F93AF93BF9311
S1130B10EF93FF93E0919400F0919500309709F0E2
S1130B200995FF91EF91BF91AF919F918F917F9123
S1130B306F915F914F913F912F910F900FBE0F9046
S1130B401F9018951F920F920FB60F9211242F9396
S1130B503F934F935F936F937F938F939F93AF9341
S1130B60BF93EF93FF93E091A200F091A30030971D
S1130B7009F00995FF91EF91BF91AF919F918F91EA
S1130B807F916F915F914F913F912F910F900FBE85
S1130B900F901F9018951F920F920FB60F92112469
S1130BA02F933F934F935F936F937F938F939F9371
S1130BB0AF93BF93EF93FF93E091A000F091A10056
S1130BC0309709F00995FF91EF91BF91AF919F91F3
S1130BD08F917F916F915F914F913F912F910F90E2
S1130BE00FBE0F901F9018959C01892BA9F090912E
S1130BF0A400933088F4673078F485E0989FF0017E
S1130C001124EB55FF4F318320836283448381E0B9
S1130C1083839F5F9093A40008952091A400E5EA44
S1130C20F0E090E0921761F08481823031F08381AA
S1130C303281831710F48F5F83839F5F3596F2CFE1
S1130C400895CF93DF93C0E0D5E08091A400C81746
S1130C5070F4DC9FF0011124EB55FF4F8481813047
S1130C6021F40190F081E02D0995CF5FEECFDF9163
S1130C70CF91089560E080E00E94040281E890E052
S1130C800E94330169E080E00E9404022091600028
S1130C9030E040E050E060E070E080E090E00E94EE
S1130CA03F01809160008C3318F081E080936000F4
S1130CB0089588E00C94B9038AE00C94B90368940D
S1130CC001C0E894F92FF12B12F00C949306A0E0E4
S1130CD0B0E0EDE6F6E00C940507092E059422F445
S1130CE00E94EF06112392F4F0E80F26FFEFE09440
S1130CF0F09400951095B094C094D094A194BF0A38
S1130D00CF0ADF0AEF0AFF0A0F0B1F0B0E949E0691
S1130D1007FC0E94EF06CDB7DEB7ECE00C94210788
S1130D20689401C0E8948F929F92CF93DF930E94BE
S1130D309E06DF91CF919F908F90089588249924E7
S1130D40F401E401B0E49F93AA279A158B049C0450
S1130D50ED05FE05CF05D007A10798F4AD2FDC2FD4
S1130D60CF2FFE2FE92D982C892E982F872F762FA1
S1130D70652F542F432F322F2227B85031F7BF91BC
S1130D8027C01B2EBF91BB27220F331F441F551FA3
S1130D90661F771F881F991F881C991CEE1FFF1F51
S1130DA0CC1FDD1FAA1FBB1F8A149B04EC05FD0585
S1130DB0CE05DF05A007B10748F08A189B08EC09A7
S1130DC0FD09CE09DF09A00BB10B21601A94E1F6ED
S1130DD02EF49401AF01BE01CD01000C089560957D
S1130DE070958095909530954095509521953F4FFD
S1130DF04F4F5F4F6F4F7F4F8F4F9F4F08952F92ED
S1130E003F924F925F926F927F928F929F92AF9296
S1130E10BF92CF92DF92EF92FF920F931F93CF93E3
S1130E20DF93CDB7DEB7CA1BDB0B0FB6F894DEBF7A
S1130E300FBECDBF09942A88398848885F846E84A0
S1130E407D848C849B84AA84B984C884DF80EE80EA
S1130E50FD800C811B81AA81B981CE0FD11D0FB6F3
S1130E60F894DEBF0FBECDBFED0108950024A7FDA9
S1130E7000942A173005400550056005700580056B
S10B0E8090050895F894FFCFDA
S1130E880101000000000000000000000000000153
S1130E980000000000000000000000020200000042
S10D0EA8007365636F6E647300004D
S9030000FC
