:100000000C942A000C94C4020C94ED020C94160378
:100010000C9447000C9447000C9462040C94100458
:100020000C9439040C94E7030C9490030C94BE03D5
:100030000C9447000C948B040C9447000C94B4046B
:100040000C9447000C9447000C9447000C94470014
:100050000C94470011241FBECFE5D8E0DEBFCDBF12
:1000600010E0A0E6B0E0E8E8FAE002C005900D92EA
:10007000A038B107D9F720E0A0E8B0E001C01D9298
:10008000AA3AB207E1F70E9420010C9442050C94B1
:100090000000CF93C82F60E080E10E9427016C2F01
:1000A000661F6627661F87E10E942701C6FB662739
:1000B00060F986E10E942701C5FB662760F985E1AA
:1000C0000E942701C4FB662760F984E10E94270192
:1000D00061E081E10E9427018FEC97E00197F1F741
:1000E00000C0000060E081E10E9427018FEC97E0F2
:1000F0000197F1F700C00000C3FB662760F987E1B4
:100100000E942701C2FB662760F986E10E94270151
:10011000C1FB662760F985E10E9427016C2F6170A1
:1001200084E10E94270161E081E10E9427018FECB8
:1001300097E00197F1F700C0000060E081E10E94C4
:1001400027018FEC97E00197F1F700C00000CF91F5
:1001500008952FE788E391E0215080409040E1F737
:1001600000C0000082E00E94490088E20E9449002D
:100170008FEC97E00197F1F700C000008CE00E943F
:1001800049008FEC97E00197F1F700C0000081E093
:100190000E9449008FE99FE00197F1F700C000003D
:1001A00086E00E94490008958CE982BF8091820018
:1001B00090918300019690938300809382008091B8
:1001C0008200909183000A9768F010928300109249
:1001D000820080918000909181000196909381002F
:1001E000809380008091800090918100883E9340B0
:1001F00030F010928100109280000E94FB0408955C
:1002000040E062E080E00E943F038CE982BF0E94F0
:100210008C0384ED90E00E94B90340E062E08AE341
:1002200095E00E94DD0440E063E08EE395E00E94EB
:10023000DD0408950E94AC010E94A90078940895FD
:100240000E941A010E9400010E941405FDCF982F00
:1002500097708695869586956130E1F5813099F0A5
:1002600028F08230E9F0833041F108954BB321E06A
:1002700030E0B90102C0660F771F9A95E2F7CB0113
:10028000842B8BBB089548B321E030E0B90102C054
:10029000660F771F9A95E2F7CB01842B88BB0895F0
:1002A00045B321E030E0B90102C0660F771F9A958F
:1002B000E2F7CB01842B85BB089542B321E030E007
:1002C000B90102C0660F771F9A95E2F7CB01842B24
:1002D00082BB089561113FC08130A1F028F08230C7
:1002E000F9F0833059F108954BB321E030E0B901C2
:1002F00002C0660F771F9A95E2F7CB0180958423A1
:100300008BBB089548B321E030E0B90102C0660F0D
:10031000771F9A95E2F7CB018095842388BB0895D7
:1003200045B321E030E0B90102C0660F771F9A950E
:10033000E2F7CB018095842385BB089542B321E089
:1003400030E0B90102C0660F771F9A95E2F7CB0142
:100350008095842382BB0895E0E6F0E080E041E0F0
:1003600050E09191382F3770282F269526952695A5
:100370009130C9F120F0923009F479C0BFC021302A
:1003800089F028F02230C9F0233011F1B7C09AB3B8
:10039000BA0102C0660F771F3A95E2F79B01292B3D
:1003A0002ABBACC097B3BA0102C0660F771F3A955B
:1003B000E2F79B01292B27BBA1C094B3BA0102C06D
:1003C000660F771F3A95E2F79B01292B24BB96C055
:1003D00091B3BA0102C0660F771F3A95E2F79B010D
:1003E000292B21BB8BC02130A9F028F0223009F144
:1003F000233071F183C09AB3BA0102C0660F771F30
:100400003A95E2F79B01209592239ABB9BB329234F
:100410002BBB74C097B3BA0102C0660F771F3A9521
:10042000E2F79B012095922397BB98B3292328BB21
:1004300065C094B3BA0102C0660F771F3A95E2F720
:100440009B012095922394BB95B3292325BB56C0CD
:1004500091B3BA0102C0660F771F3A95E2F79B018C
:100460002095922391BB92B3292322BB47C0213010
:10047000B1F028F0223019F1233089F13FC09AB34E
:10048000BA0102C0660F771F3A95E2F79B01362F3B
:10049000309593239ABB9BB3292B2BBB2FC097B3CB
:1004A000BA0102C0660F771F3A95E2F79B01362F1B
:1004B0003095932397BB98B3292B28BB1FC094B3C7
:1004C000BA0102C0660F771F3A95E2F79B01362FFB
:1004D0003095932394BB95B3292B25BB0FC091B3C3
:1004E000BA0102C0660F771F3A95E2F79B01362FDB
:1004F0003095932391BB92B3292B22BB8F5F80321F
:1005000009F02FCF0895982F977086958695869538
:10051000813099F028F08230E9F0833041F108957C
:100520004BB321E030E0B90102C0660F771F9A9506
:10053000E2F7CB0184278BBB089548B321E030E07C
:10054000B90102C0660F771F9A95E2F7CB018427A5
:1005500088BB089545B321E030E0B90102C0660FC1
:10056000771F9A95E2F7CB01842785BB089542B3A4
:1005700021E030E0B90102C0660F771F9A95E2F7DB
:10058000CB01842782BB08951F920F920FB60F9262
:1005900011242F933F934F935F936F937F938F9388
:1005A0009F93AF93BF93EF93FF93E0918800F091F7
:1005B0008900309709F00995FF91EF91BF91AF91B4
:1005C0009F918F917F916F915F914F913F912F916B
:1005D0000F900FBE0F901F9018951F920F920FB69D
:1005E0000F9211242F933F934F935F936F937F93B9
:1005F0008F939F93AF93BF93EF93FF93E091860008
:10060000F0918700309709F00995FF91EF91BF9124
:10061000AF919F918F917F916F915F914F913F919A
:100620002F910F900FBE0F901F9018951F920F9251
:100630000FB60F9211242F933F934F935F936F93B5
:100640007F938F939F93AF93BF93EF93FF93E0912B
:100650008400F0918500309709F00995FF91EF91A2
:10066000BF91AF919F918F917F916F915F914F91CA
:100670003F912F910F900FBE0F901F9018958130D2
:1006800069F028F0823089F08330B1F01BC083B765
:100690008F7B83BF83B7877F83BF14C083B780649A
:1006A00083BF83B7877F83BF0DC083B78F7B83BF33
:1006B00083B7886083BF06C083B7806483BF83B776
:1006C000886083BF83B7887F83BF83B7682B63BF8E
:1006D000413069F028F0423089F04330B1F008959C
:1006E00083B78F7E83BF83B78F7D83BF089583B722
:1006F000806183BF83B78F7D83BF089583B78F7E6B
:1007000083BF83B7806283BF089583B7806183BF4F
:1007100083B7806283BF089589B7816089BF0895D8
:100720001F920F920FB60F9211242F933F934F9366
:100730005F936F937F938F939F93AF93BF93EF9349
:10074000FF93E0919200F0919300309709F00995A2
:10075000FF91EF91BF91AF919F918F917F916F9199
:100760005F914F913F912F910F900FBE0F901F906F
:100770001895909395008093940008951F920F927E
:100780000FB60F9211242F933F934F935F936F9364
:100790007F938F939F93AF93BF93EF93FF93E091DA
:1007A0009400F0919500309709F00995FF91EF9131
:1007B000BF91AF919F918F917F916F915F914F9179
:1007C0003F912F910F900FBE0F901F9018951F9281
:1007D0000F920FB60F9211242F933F934F935F9375
:1007E0006F937F938F939F93AF93BF93EF93FF93F9
:1007F000E0919000F0919100309709F00995FF91F8
:10080000EF91BF91AF919F918F917F916F915F9188
:100810004F913F912F910F900FBE0F901F90189501
:100820001F920F920FB60F9211242F933F934F9365
:100830005F936F937F938F939F93AF93BF93EF9348
:10084000FF93E0918E00F0918F00309709F00995A9
:10085000FF91EF91BF91AF919F918F917F916F9198
:100860005F914F913F912F910F900FBE0F901F906E
:1008700018951F920F920FB60F9211242F933F934A
:100880004F935F936F937F938F939F93AF93BF9398
:10089000EF93FF93E0918C00F0918D00309709F079
:1008A0000995FF91EF91BF91AF919F918F917F91AA
:1008B0006F915F914F913F912F910F900FBE0F90CD
:1008C0001F9018951F920F920FB60F9211242F931D
:1008D0003F934F935F936F937F938F939F93AF93C8
:1008E000BF93EF93FF93E0918A00F0918B003097D4
:1008F00009F00995FF91EF91BF91AF919F918F9171
:100900007F916F915F914F913F912F910F900FBE0B
:100910000F901F9018951F920F920FB60F921124EF
:100920002F933F934F935F936F937F938F939F93F7
:10093000AF93BF93EF93FF93E0919800F0919900EC
:10094000309709F00995FF91EF91BF91AF919F9179
:100950008F917F916F915F914F913F912F910F9068
:100960000FBE0F901F9018951F920F920FB60F9207
:1009700011242F933F934F935F936F937F938F93A4
:100980009F93AF93BF93EF93FF93E0919600F09105
:100990009700309709F00995FF91EF91BF91AF91C2
:1009A0009F918F917F916F915F914F913F912F9187
:1009B0000F900FBE0F901F9018959C01892BD1F0BE
:1009C00090919A009330B0F46730A0F4E92FF0E0F2
:1009D000DF01AA0FBB1FAA0FBB1FEA0FFB1FE556C3
:1009E000FF4F318320836283448381E083839F5F51
:1009F00090939A00089530919A003323A1F0EBE987
:100A0000F0E080E041E09481923049F093812281CE
:100A1000921718F04483438302C09F5F93838F5FD4
:100A200035968313F0CF08950F931F93CF93809142
:100A30009A008823D9F0C0E08C2F90E0FC01EE0FE3
:100A4000FF1FEE0FFF1FE80FF91FE556FF4F248130
:100A5000213039F48F010190F081E02D0995F801E2
:100A60001482CF5F80919A00C81730F3CF911F9105
:100A70000F91089580E00E94830208958AE00E9409
:080A800083020895F894FFCFF2
:100A8800000000000000000000000000000001005D
:100A9800000000000000000000000202000000004A
:00000001FF
